:020000040800F2
:1000000000A000205535000800000000000000009E
:1000100000000000000000000000000000000000E0
:1000200000000000000000000000000000000000D0
:10003000000000000000000000000000B1360008D1
:1000400000000000000000000000000000000000B0
:1000500000000000000000000000000000000000A0
:100060000000000000000000000000000000000090
:100070000000000000000000000000000000000080
:100080000000000000000000000000000000000070
:100090000000000000000000000000000000000060
:1000A0000000000000000000000000000000000050
:1000B0000000000000000000000000000000000040
:1000C0000000000000000000000000000000000030
:1000D0000000000000000000000000000000000020
:1000E0000000000000000000000000000000000010
:1000F0000000000000000000000000000000000000
:1001000000000000000000000000000000000000EF
:1001100000000000000000000000000000000000DF
:1001200000000000000000000000000000000000CF
:1001300000000000000000000000000000000000BF
:1001400000000000000000000000000000000000AF
:10015000000000000000000000000000000000009F
:08016000000000000000000097
:100170002DE9F04F85B057EC106BDDE90E9B002F99
:100180000C4690461946B8BF32463B462BF0200A33
:10019000BBBF07F100431F4600232D23B8BF1646FF
:1001A000BAF1460F0B7005D0BAF1450F00D10134FA
:1001B000022100E0032103AB019302AB009347EC63
:1001C000106B4B46224600F02BFDBBF1670F054636
:1001D00019D118F0010F0ED005EB040800220023FE
:1001E0003046394603F01CF908B1CDF80C803022B6
:1001F000039B434521D3039B109A5B1B2846136046
:1002000005B0BDE8F08FBBF1470FE2D0BAF1460F61
:1002100000EB0408E2D10378302B0AD1002200233E
:100220003046394603F0FCF818B9C4F10104C9F8A6
:100230000040D9F800309844D0E7591C03911A7057
:10024000D6E7F7B50029BABF49422D232B23092948
:100250000270437029DD0DF107031D460A271A4677
:10026000B1FBF7F607FB1614303402F8014C0C46CC
:10027000632C03F1FF333146F1DC3031941E03F877
:10028000011C411C2346AB420AD30DF109039B1A02
:10029000AC4288BF002302330344181A03B0F0BDF8
:1002A00013F8016B01F8016FEDE7302330318370F3
:1002B000C170031DF1E700002DE9F04F8DB00C4631
:1002C000DDF8588016461F46054600F0C1FB03685E
:1002D0000493184600F014FC00230A93D8F8003069
:1002E0000590073323F0070303F1080294F818A0E0
:1002F000D4F800B0C8F80020D3E9008929F0004301
:100300000793CDF81880C4E91289DDE90601A04BF6
:100310004FF0FF3203F0B6F870BBDDE906019C4BED
:100320004FF0FF3203F090F830BB0022002340462C
:10033000494603F07FF810B12D2384F84330954AE5
:10034000954BBAF1470F94BF90469846032323611B
:100350002BF0040323604FF00009009733460BAAEB
:100360002146284600F0DAF9013040F096804FF03F
:10037000FF300DB0BDE8F08F42464B46404649463F
:1003800003F080F840B14B46002BBCBF2D2384F80E
:100390004330824A824BD4E763685A1C26D1062335
:1003A00063604BF480620023226003930AABCDE9C3
:1003B00001A309AB0093616849EC108B0DF1230395
:1003C0002846FFF7D5FEBAF1670F0999804615D187
:1003D000CB1C3BDB6368994238DC0A9B994255DBB6
:1003E00023682161D80745D54B1C42E00AF0DF02A3
:1003F000472AD6D1002BD4D10123D1E7BAF1470F38
:1004000007D1C81C25DB63688B4222DB4FF0670AEB
:10041000E3E7BAF1650F1FD80139524604F15000E5
:100420000991FFF70EFF0A9A1318012A81462361EA
:1004300002DC2268D20701D5013323619DF8233005
:10044000002B8AD02D2384F8433086E74FF0650ACD
:10045000E2E74FF0450ADFE7BAF1660FBDD10029A8
:1004600063680BDD216113B92268D00702D501331F
:100470000B442361A1654FF00009DFE713B922683F
:10048000D20701D50233F4E70123F2E70029D4BFF4
:10049000C1F1020201221344EBE723685A0507D495
:1004A0002369424631462846B84701302BD15EE7E2
:1004B000BAF1650F40F2DC80D4E91201002200237A
:1004C00002F0AEFF002833D0364A012331462846D9
:1004D000B84701303FF44BAFDDE90938434502DB53
:1004E0002368D8070FD5DDE9042331462846B847ED
:1004F00001303FF43CAF4FF0000908F1FF3804F140
:100500001A0AC84509DC23689B0700F10281E068EC
:100510000B9B9842B8BF18462BE701235246314641
:100520002846B84701303FF422AF09F10109E8E756
:10053000099B002B38DC1B4A012331462846B8476B
:1005400001303FF414AFDDE9093959EA030302D160
:100550002368D907D7D5DDE9042331462846B847B3
:1005600001303FF404AF4FF0000A04F11A0B099B6D
:100570005B42534501DC4B4693E701235A46314623
:100580002846B84701303FF4F2AE0AF1010AEEE71F
:10059000FFFFEF7FB0370008B4370008B837000816
:1005A000BC370008C0370008A36DDDF828A053450C
:1005B000A8BF5346002B994636DC4FF0000B29EAC2
:1005C000E97904F11A02A36D0693A3EB09035B45D5
:1005D00031DC099B9A453ADC2368DA0737D4099B5A
:1005E000AAEB0309069BAAEB03039945A8BF99460A
:1005F000B9F1000F33DC4FF0000829EAE97904F182
:100600001A0B099BAAEB0303A3EB090343457FF7EE
:100610007AAF01235A4631462846B84701303FF4A5
:10062000A6AE08F10108ECE7424631462846B84735
:100630000130C2D19BE60123314628460692B847D5
:1006400001303FF494AE069A0BF1010BBBE7DDE9F4
:10065000042331462846B8470130C0D187E6069AC0
:100660004B46424431462846B8470130C3D17EE666
:10067000DDF828A0BAF1010F01DCDB0736D5012334
:10068000424631462846B84701303FF470AEDDE9B6
:10069000042331462846B84701303FF468AED4E918
:1006A0001201002200230AF1FF3A02F0B9FEC0B99C
:1006B000534608F1010231462846B84701300CD1B3
:1006C00055E601235A4631462846B84701303FF4E3
:1006D0004EAE08F10108D045F3DB4B4604F1500261
:1006E000E0E64FF0000804F11A0BF4E7012342465C
:1006F000E1E701234A4631462846B84701303FF436
:1007000036AE08F10108E3680B995B1A4345F0DC4B
:10071000FDE64FF0000804F11909F4E72DE9F04770
:10072000164698468A680B69DDF820909342B8BF58
:100730001346336091F8432007460C460AB1013353
:1007400033602368990642BF3368023333602568FB
:1007500015F0060506D104F1190AE36832689B1A00
:10076000AB4226DC94F843302268003B18BF0123DB
:1007700092062BD404F1430241463846C847013063
:100780001ED02368226903F00603042B02BFE5682C
:100790003368ED1AA3680CBF25EAE575002593427E
:1007A000C4BF9B1AED1800261A34B5421AD1002096
:1007B00008E00123524641463846C847013003D17C
:1007C0004FF0FF30BDE8F0870135C6E7E1185A1C4D
:1007D000302081F84300224494F8451082F84310F9
:1007E0000233C7E70123224641463846C847013055
:1007F000E6D00136D9E700002DE9FF470F7E0C9EB9
:10080000782F914680460C469A4601F1430207D85C
:10081000622F0AD8002F00F0DD80582F00F0C3802F
:1008200004F1420684F842703AE0A7F16303152B05
:10083000F6D801A151F823F091080008A508000896
:1008400021080008210800082108000821080008E4
:10085000A508000821080008210800082108000850
:1008600021080008BB0900083309000873090008C3
:100870002108000821080008DD09000821080008F7
:100880003309000821080008210800087B09000836
:1008900033681A1D1B68326004F1420684F8423046
:1008A0000123A8E031682368081D30601E0601D5C9
:1008B0000D6803E05D06FBD5B1F900506168002DBD
:1008C00078DA2D20002984F84300A1602DDA5E48F3
:1008D0006D420A231646B5FBF3F103FB1157C75DC2
:1008E00006F8017D2F46BB420D46F4D9082B0BD1EB
:1008F0002368DF0708D5236961689942DEBF30238A
:1009000006F8013C06F1FF36921B2261CDF800A0EB
:100910004B4603AA21464046FFF700FF01306FD146
:100920004FF0FF3004B0BDE8F08723F004032360EC
:10093000CDE721683368080653F8045B02D4490602
:1009400048BFADB26F2F4048336014BF0A2308235D
:10095000002184F843106668A660002EBADB216887
:1009600021F004012160002DB4D1002EB2D1164631
:10097000BCE7236843F0200323603448782784F8D9
:100980004570236831681F0651F8045B02D45F0686
:1009900048BFADB23160D90744BF43F020032360A4
:1009A0001DB11023D4E72848E9E7236823F020038A
:1009B0002360F6E724480A23CDE733682568616998
:1009C000181D30602E061B6801D5196002E068060C
:1009D000FBD5198000232361164697E733681A1D5B
:1009E00032601E6862680021304600F039F808B1B4
:1009F000801B606063682361002384F8433085E7CF
:100A00002369324649464046D047013088D02368A2
:100A10009B0714D4E068039B9842B8BF184681E74F
:100A20000123324649464046D04701303FF478AF73
:100A30000135E36803995B1AAB42F1DCEAE7002574
:100A400004F11906F5E700BFC2370008D3370008E4
:100A500000487047F0000020000000000000000087
:100A600001F0FF01102A2BDB10F0070F08D010F85F
:100A7000013B013A8B422DD010F0070F42B3F6D163
:100A8000F0B441EA012141EA014122F007047FF07C
:100A900000070023F0E80256083C85EA010586EAD3
:100AA000010685FA47F5A3FA87F586FA47F6A5FA0F
:100AB00087F68EB9EED1F0BC01F0FF0102F007021B
:100AC00032B110F8013B013A83EA010313B1F8D1C6
:100AD0000020704701387047002D06BF35460338A7
:100AE000073815F0010F07D1013015F4807F02BFE0
:100AF000013015F4C03F0130F0BC0138704700BF31
:100B0000034613F8012B002AFBD1181A013870474D
:100B10002DE9F74F03690C69A34207467EDB013CD0
:100B200001F11408A30000F11405009305EB840300
:100B3000019358F8243055F8242001339A4208EBE9
:100B40008409B2FBF3F62ED34FF0000AC446AE463A
:100B5000D3465CF8043B98B206FB00A0020C1B0CC9
:100B600006FB0323DEF8002080B292B2121A5A4428
:100B7000DEF800004FEA134A9BB2C3EB224303EBBB
:100B8000104392B242EA0342E1454EF8042B4FEA89
:100B9000234BDED2009BEB582BB9019B043B9D42BB
:100BA0001A462FD33C61384601F09AF9002825DB1C
:100BB0002946002058F8042BD1F800C01FFA82FE05
:100BC0001FFA8CF3A3EB0E030344120CC2EB234277
:100BD00002EB1C429BB243EA0243C14541F8043B8D
:100BE0004FEA2240E6D255F8242005EB840322B9CF
:100BF000043B9D421A460BD33C610136304603B09C
:100C0000BDE8F08F1268043B002ACBD1013CC6E757
:100C10001268043B002AEFD1013CEAE70020EEE72E
:100C20002DE9F04FC76997B08DED000B55EC104BD7
:100C3000209E089183460C9212937FB9102000F0F9
:100C40001BFE0246CBF81C0020B9A74BEF21A7489A
:100C500001F070FAC0E901770760C760DBF81C306B
:100C6000196859B15A684A60012393408B6058460D
:100C700000F0F8FEDBF81C3000221A602B1EB9BF12
:100C800023F00043019300233360019F984BBCBFC6
:100C900001223260BB4319D1129A42F20F731360E2
:100CA000C7F31303234300F0DD85219B53B9914B18
:100CB00021E0914B03930833219A1360039817B0F6
:100CC000BDE8F08F8B4B03930333F5E79DED007B7D
:100CD000002251EC170B00238DED0A7B02F0A0FBE4
:100CE000804650B1129A01231360219B13B1219ABF
:100CF000824B1360824B0393E0E79DED0A0B14AA2D
:100D000015A9584601F09CF9C7F30A560290002E27
:100D100078D00B9BCDF84C80C3F31303DDE90A01B7
:100D200043F07F5343F44013A6F2FF3619460022E6
:100D3000744B01F055FF66A3D3E9002302F008F9D4
:100D400065A3D3E9002301F04DFF044630460D466C
:100D500002F094F862A3D3E9002302F0F9F8024606
:100D60000B462046294601F03DFF04460D4602F0A1
:100D70009FFB0022074600232046294602F05AFB2B
:100D800040B1384602F07AF822462B4602F048FB82
:100D900000B9013F162F52D85B4B03EBC703D3E9D1
:100DA0000023DDE90A0102F045FB002849D0013F9C
:100DB00000231193149B9B1B5A1E45BFC3F10103D3
:100DC000069300230023079254BF06930793002F36
:100DD00039DB079B10973B44079300230993089B3B
:100DE000092B66D8052BC4BF043B0893089BA3F1CD
:100DF0000203CCBF00240124032B65D8DFE803F0F5
:100E00002B383657DDE914631E4406F23243202B9B
:100E1000C1BFC3F140039F4006F2124324FA03F31B
:100E2000D6BFC3F1200347EA030004FA03F002F03F
:100E300015F80122A1F1F873013E139276E7012320
:100E4000B7E71190B6E7069BDB1B06937B4209933D
:100E500000231093C3E700230D930C9B002B57DC5A
:100E60000123049399461A460C920CE00123F3E700
:100E700000230D930C9BFB1803F1010904934B46CF
:100E8000012BB8BF0123DBF81C000021042202F172
:100E900014059D4240D94160584600F0A3FD0390DF
:100EA00000283CD1194B024640F2AF11CFE6012396
:100EB000DFE70124002308930D944FF0FF330493E0
:100EC000994600221223CFE701230D93F5E700BFD7
:100ED00061436F63A787D23FB3C8608B288AC63F40
:100EE000FB799F501344D33FF137000808380008BE
:100EF0000000F07FED370008E4370008C137000834
:100F0000C03700080000F83F203900087138000899
:100F10000C9B04939946B6E701315200B7E7DBF822
:100F20001C30039A1A60B9F10E0F6FD8002C6DD0E7
:100F3000002F36DDA14B07F00F0203EBC20393ED48
:100F4000007BF8058DED0E7B4FEA271417D59C4BDF
:100F5000DDE90A01D3E9082302F024F9CDE9000113
:100F600004F00F044FF00308954D5CB9DDE90E2342
:100F7000DDE9000102F016F9CDE900012BE04FF0A8
:100F80000208F1E7E10709D5DDE90E01D5E9002303
:100F900001F0DEFFCDE90E0108F10108641008350B
:100FA000E3E700F007817C42844B854D04F00F029B
:100FB00003EBC203D3E90023DDE90A0101F0C8FF16
:100FC000CDE90001241100234FF00208002C40F06D
:100FD000E580002BD0D1119BDDE90045002B00F00E
:100FE0004C81784B00222046294602F023FA002843
:100FF00000F04381B9F1000F00F03F81049B002B0A
:1010000000F3E480DDE90A34CDE90034159B002BC0
:1010100002DB0E2F40F342820D9A002A40F06782D5
:10102000099CDDF818800025B8F1000F0DD0079B52
:10103000002B0ADD4345069AA8BF4346D21A069202
:10104000079AA8EB0308D31A0793099B0BB30D9BD0
:10105000002B00F0A682002C00F0A1822946224637
:10106000584600F077FE029A01460546584600F0C1
:10107000C7FD02990646584600F0F4FC099B1B1B6D
:10108000099300F09182099A3146584600F062FEB9
:1010900002900121584600F09DFD109B0446002B54
:1010A00000F084821A460146584600F053FE089B21
:1010B000012B044603DC009B002B00F07C82002601
:1010C000236904EB8303186900F034FD1096C0F126
:1010D0002000079B184410F01F0000F09182C0F11F
:1010E0002003042B40F38182069BC0F11C000344C3
:1010F0000693079B034480440793069B002B05DD62
:1011000002991A46584600F07FFE0290079B002B7A
:1011100005DD21461A46584600F076FE0446119B2E
:10112000002B00F076820298214600F0D9FE0028BC
:1011300080F26F82002302990A22584600F0B4FC24
:101140000D9B02907E1E002B00F05C82002329463E
:101150000A22584600F0A8FC049B002B054603DC3D
:10116000089B022B00F35E82B8F1000F05DD2946D3
:101170004246584600F048FE0546109B002B00F002
:10118000D0826968584600F02DFC0746002840F0E0
:101190007F820D4B024640F2EF2158E5E20706D56B
:1011A000D5E9002301F0D4FE08F101080123641001
:1011B00008350BE74FF002080DE700BF20390008A3
:1011C000F83800080000F03F713800082046AD4BA9
:1011D0000022294601F0BCFECDE90001049C7E1EE0
:1011E00008F10108404601F049FEDDE9002301F065
:1011F000AFFEA54B002201F0F5FCA1F15073CDE943
:101200000E010F93002C3BD1DDE900019F4B002222
:1012100001F0E6FC02460B46CDE90023DDE90E2392
:1012200002F026F9002840F05781DDE90E2101F196
:101230000043DDE9000102F0FDF800283FF4E2AED2
:10124000002425460C9BDDF80CA0DE434FF000087F
:101250002146584600F006FC002D00F0A980B8F1A8
:10126000000F05D0A84503D04146584600F0FAFBD0
:101270002946584600F0F6FB9AE03E464C46B1E758
:10128000834B03EBC40353E90201039B1C440D9BF6
:10129000002B4AD002460B4600207E4901F082FF17
:1012A000DDE90E2301F09CFCCDE90E01DDF80CA078
:1012B000DDE9000102F0FCF8054601F0DFFD024621
:1012C0000B46DDE9000101F08BFC3035CDE9000172
:1012D00002460B460AF8015BDDE90E0102F0C8F890
:1012E000002865D1DDE900236B49002001F078FC7E
:1012F00002460B46DDE90E0102F0BAF8002840F084
:101300000D81A24500F0EA80DDE90E015D4B00226F
:1013100001F01EFE5B4BCDE90E010022DDE900016C
:1013200001F016FECDE90001C2E7DDE90E2301F070
:101330000FFECDE90E01DDF80CA0A046DDE90001AD
:1013400002F0B6F8054601F099FD02460B46DDE9CC
:10135000000101F045FC30350AF8015B02460B46FE
:10136000A245CDE900234FF0000223D1494BDDE92E
:101370000E0101F037FC02460B46DDE9000102F0E8
:1013800077F8002840F0CA80DDE90E2341490020AB
:1013900001F026FC02460B46DDE9000102F04AF8A6
:1013A00070B1C24608F1FF381AF8013C302BF8D072
:1013B000374655E0334B01F0CBFDCDE90001BDE7E9
:1013C000DDE90A34CDE90034159B002BFFF628AE89
:1013D0000E2F3FF725AE2E4B03EBC70393ED007B9B
:1013E0000C9B002B8DED047B02DAB9F1000F64D069
:1013F000DDE90045DDF80CA0DDE90423204629469F
:1014000001F0D0FE02F054F8064601F037FDDDE9A8
:10141000042301F09DFD02460B462046294606F1B5
:10142000300401F0DDFB0AF8014B039CAAEB040435
:10143000A14502460B4640F0828001F0D3FBDDE976
:10144000042304460D4602F013F8002865D1DDE9B7
:1014500004232046294601F0E3FF08B1F3075CD4DA
:101460000299584600F0FEFA00238AF80030129BD9
:1014700001371F60219B002B3FF420ACC3F800A074
:101480001CE400BF0000244000001C400000144089
:10149000203900080000E03F0000F03FA24B03EBC2
:1014A000C70393ED007B0C9B002B8DED047B9FDA33
:1014B000B9F1000F9CDC7FF4C3AE9C4B0022DDE948
:1014C000040101F045FDDDE9002301F0C7FF0446FA
:1014D00000287FF4B5AE3E462546B4E0DDE90A3487
:1014E000CDE90034159B002B01DB0E2FD6DD089AC9
:1014F000012A36DC139A82B303F23343099CDDF8E8
:101500001880069A1A440692079A01211A445846EE
:10151000079200F05FFB054686E53E4653469A4635
:1015200013F8012D392A06D1039A9A42F7D103996B
:10153000302201360A701A7801321A7038E77C4B73
:10154000002201F005FD0022002304460D4601F0B3
:1015500067FF00283FF450AF82E7149BC3F13603C6
:10156000CCE7099B09F1FF34A34208DBB9F1000F76
:10157000A3EB04040EDBDDF818804B46C1E7099BA2
:10158000109A0994E31A1A44DDF8188010924B4619
:101590000024B6E7069BA3EB09080023B1E7029EEF
:1015A00071E5099A029970E5029672E5089B012B94
:1015B00017DC009BABB9019BC3F313039BB9019BE1
:1015C00023F00046360D360536B1069B01330693EF
:1015D000079B013307930126109B002B7FF470AD0E
:1015E0001096012075E50026F6E73FF486AD069AD1
:1015F0001C331A440692079A1A44984407927CE5D1
:101600000346F4E7049B002B2BDC089B022B09DC30
:1016100027E0B9F1000F1DDC089B022B1ADDCDF885
:1016200010903E46049B002B7FF40CAE2146052211
:10163000584600F039FA01460446029800F050FC82
:1016400000287FF7FFADDDF80CA031230AF8013B3D
:101650000136FBE50D9BCDF810903E46002B7FF444
:1016600083AD039F02982146FFF752FA00F130093B
:1016700007F8019B039B049AFB1A9A4240F3CB8024
:10168000029900230A22584600F00EFA0290E9E778
:101690002A690232920005F10C010C3000F03BFD8A
:1016A00001223946584600F0AFFB039B03F1010AC3
:1016B000DDE9032313440793009B03F00103A846CD
:1016C000099305460AF1FF33214602980493FFF778
:1016D0001FFA4146069000F13009029800F000FC24
:1016E0002A4621460746584600F016FCC2680146C5
:1016F00002B3584600F0B6F9002F3ADA02990122F7
:10170000584600F081FB2146029000F0E9FB0028DA
:1017100003DC29D119F0010F26D0B9F1390F1DD101
:1017200032E02846C1E700BF20390008000014401D
:10173000000024400A90029800F0D2FB0A990C9015
:10174000584600F08FF90C9A5ABB089B53B9099B75
:1017500043B9B9F1390F17D0002F05DD069B03F10E
:10176000310901E0002F2ADADDF810A00AF8019B08
:101770006EE5089B3B4304D1009B03F00103002B63
:10178000BCD0B9F1390F36D1049F392307F8013B9A
:10179000BA46013F1AF8013C392B5BD001333B704C
:1017A00056E5002F06DB089B3B4306D1009B03F068
:1017B000010313B9002AA1DCD6E7002AE1DC079B6C
:1017C0000AF8019C534557462FD0029900230A225C
:1017D000584600F069F9A84502904FF000034FF019
:1017E0000A02414658460BD100F05EF98046054694
:1017F0000AF1010A66E7DDF810A009F10109B5E771
:1018000000F052F92946804600230A22584600F08B
:101810004BF90546ECE7049B002BC8BF1F46039B12
:10182000D8BF01271F444FF00008029901225846F3
:1018300000F0EAFA2146029000F052FB0028A7DCF3
:1018400002D119F0010FA3D1BA4617F8013D302B90
:10185000FAD0FDE4039BBB429AD1039A31230136AF
:101860001370F5E4219B002B7FF423AA014BFFF7B3
:1018700042BA00BFE4370008024B0146186800F086
:1018800025B800BFC401002070B50F4E0C4631686A
:10189000054611B900F02CFC30602146284600F0C6
:1018A00027FC431C03D14FF0FF34204670BDC41CFD
:1018B00024F00304A042F8D0211A284600F018FCB6
:1018C0000130F2D1EFE700BFD00100202DE9F8434D
:1018D000CD1C25F0030508350C2D38BF0C25002D37
:1018E000064601DBA94204D90C2333600020BDE881
:1018F000F883DFF8D48000F069F8D8F800301C468F
:1019000044BB29463046FFF7BFFF431C044658D16D
:10191000D8F800402746002F43D1002C4BD0236835
:101920003946304604EB030900F0E2FB814542D121
:1019300021686D1A29463046FFF7A6FF01303AD0DC
:1019400023682B442360D8F800305A6862BBC8F87B
:1019500000700FE02268521B20D40B2A17D961199E
:10196000A342256018BF5960636808BFC8F800101B
:1019700062514B60304600F02FF804F10B00231D3C
:1019800020F00700C21A1CBF1B1AA350AFE7626801
:10199000A3420CBFC8F800205A60EBE723466468F6
:1019A000AEE73C467F68B6E71A465B68A342FBD1C8
:1019B00000235360DEE70C233360304600F00CF860
:1019C00094E70560D6E700BFCC010020014800F095
:1019D000A0BB00BFC8010020014800F09BBB00BFB6
:1019E000C801002070B5C66904460D4676B91020BE
:1019F000FFF742FF0246E06120B9184B18486B21FF
:101A000000F098FBC0E901660660C660E669F3680D
:101A100083B1E369DB6853F82500B8B9012101FA05
:101A200005F6721D9200204600F0A2FB60B1C0E9ED
:101A300001560EE021220421204600F099FBE369C3
:101A4000F060DB68002BE4D1002070BD026843F831
:101A500025200023C0E90333F7E700BFF137000872
:101A60008238000870B5C66905460C4676B9102064
:101A7000FFF702FF0246E86120B9094B09488F21B0
:101A800000F058FBC0E901660660C6603CB1EB6936
:101A90006268DB6853F82210216043F8224070BD71
:101AA000F1370008823800082DE9F0410D6907463A
:101AB0000C461E4601F1140C0020DCF8003099B2EF
:101AC00002FB01611E0C0B0C02FB063389B20130D4
:101AD00001EB034185424CF8041B4FEA1346ECDC52
:101AE0000EB3A368AB4219DC616838460131FFF7D9
:101AF00079FF804628B902460C4B0D48BA2100F008
:101B000019FB2269023204F10C0192000C3000F042
:101B100002FB21463846FFF7A5FF444604EB850348
:101B200001355E6125612046BDE8F081713800080D
:101B300082380008B0F5803F034636BF030400201A
:101B40001020B3F1807F3CBF1B020830B3F1805FEF
:101B50003CBF1B010430B3F1804F03D3002B0ADBE1
:101B6000013070479B0001D5023070475B0001D502
:101B700003307047202070470368024613F00700C7
:101B80000BD0D90721D4980749BF5B089B080120D7
:101B900013605CBF13600220704799B209B91B0C37
:101BA0001020D9B209B908301B0A190704BF1B0954
:101BB0000430990704BF9B080230D90703D45B089F
:101BC00000F1010003D0136070470020704720200F
:101BD0007047000010B50C460121FFF703FF0246D5
:101BE00028B9054B054840F2451100F0A3FA01233E
:101BF0004461036110BD00BF7138000882380008DD
:101C00002DE9F04F14460A6923699A42A8BF23467A
:101C10000F46A4BF0C461F46D4F810A0D7F810906A
:101C2000A36861680AEB0906B34285B0B8BF013109
:101C3000FFF7D8FE30B90246444B45484FF4B17126
:101C400000F078FA00F1140505EB86082B46002217
:101C5000434521D307F1140104F1140202EB8A0277
:101C600001EB89030293131B153B23F00303043399
:101C700004F11507BA4238BF04230193029B039174
:101C80008B420CD8002E03DD58F8043D002B5BD0AE
:101C9000066105B0BDE8F08F43F8042BD8E7B1F832
:101CA00000A0BAF1000F24D004F1140EA9464FF0A1
:101CB000000C5EF8047BD9F800301FFA87FB9BB25A
:101CC0000AFB0B334FEA174BD9F8007063444FEA15
:101CD000174C0AFB0BC707EB13479BB243EA0743BA
:101CE000724549F8043B4FEA174CE2D8019B45F88E
:101CF00003C0039BB3F802900431B9F1000F21D067
:101D00002B6804F1140CAE464FF0000ABCF800B08A
:101D1000BEF8027009FB0B7757449BB243EA0743B6
:101D20004EF8043B5CF8043B4FEA134ABEF800301F
:101D300009FB0A3303EB174362454FEA134AE5D820
:101D4000019FEB51043599E7013E9BE7713800088C
:101D5000823800082DE9F843154612F003020746C1
:101D60000E4607D0254C013A002354F82220FFF7F5
:101D70009BFE0646AD103DD0FC697CB91020FFF7F4
:101D80007BFD0246F86128B91D4B1E4840F2B31195
:101D900000F0D0F9C0E901440460C460D7F81C80A9
:101DA000D8F808404CB940F271213846FFF712FFCD
:101DB0000023C8F80800044603604FF00009EB0751
:101DC0000AD5314622463846FFF71AFF314680468B
:101DD0003846FFF747FE46466D100BD0206838B9ED
:101DE000224621463846FFF70BFF2060C0F80090DE
:101DF0000446E4E73046BDE8F88300BFEC3800084D
:101E0000F1370008823800082DE9F0470C46496890
:101E1000236903EB6218A368074691464FEA621AEA
:101E200008F10106B3420BDB3846FFF7DBFD054640
:101E300048B90246284B29484FF4EF7100F07AF96F
:101E400001315B00EEE7002300F1140100F1100204
:101E50001846534533DB20692AEAEA7A04F1140371
:101E600019F01F0901EB8A0103EB800C2BD0C9F19B
:101E7000200E8A460022186800FA09F010434AF83A
:101E8000040B53F8042B9C4522FA0EF2F3D8ACEB6A
:101E90000403153B23F00303043304F115008445C8
:101EA00038BF0423CA500AB108F10206013E384681
:101EB0002E612146FFF7D6FD2846BDE8F08742F89F
:101EC000040F0133C5E7043953F8042B41F8042FFC
:101ED0009C45F9D8EAE700BF71380008823800084D
:101EE0000A6903460069801A30B50ED114331431E3
:101EF00003EB820401EB820154F8045D51F8042DD8
:101F0000954203D005D24FF0FF3030BDA342F3D34A
:101F1000FBE70120F9E700002DE9F74F8946064667
:101F2000114648461446FFF7DBFF051E12D129462D
:101F30003046FFF757FD024628B93F4B40F23721A4
:101F40003E4800F0F7F80123C0E90435104603B01D
:101F5000BDE8F08FBCBF4B46A1463046D9F804100F
:101F6000BABF1C4601250025FFF73CFD024618B903
:101F7000314B40F24521E3E7D9F810702669C5607E
:101F800009F1100309F1140504F1140E00F1140B0A
:101F900005EB87080EEB86060193D9464FF0000C3F
:101FA000019B5EF8040B53F804AF01931FFA8AF308
:101FB000194683B2CB1A000C6344C0EB1A4000EB05
:101FC00023409BB243EA0043764549F8043B4FEA7D
:101FD000204CE5D8331B153B23F0030315340433A1
:101FE000A64238BF04231D445B441E462C4644458C
:101FF0000ED308F10301491B21F00301033DA8455D
:1020000038BF00210B4453F8041D91B117619DE7BF
:1020100054F8041BE646080C1CFA81FC714400EBE2
:102020002C4089B241EA004146F8041B4FEA204C9B
:10203000DDE7013FE7E700BF71380008823800089C
:102040002DE9F7430F46012159EC108B1646FFF797
:10205000C9FC044630B90246234B244840F20F31F4
:1020600000F068F8C9F30A55C9F313030DB143F43E
:1020700080130193B8F1000323D068460093FFF763
:102080007BFDDDE90012D0B1C0F1200302FA03F3B9
:102090000B43C24063610192019BA361002B0CBF03
:1020A000012202222261A5B1A5F2334505443D601B
:1020B000C0F135003060204603B0BDE8F0836161B7
:1020C000EAE701A8FFF758FD019B63612030012278
:1020D000E8E704EB8203A0F2324038601869FFF7AA
:1020E00029FDC0EB4210E5E771380008823800088E
:1020F00038B5064D0023044608462B6001F054FA1B
:10210000431C02D12B6803B1236038BD10030020AB
:102110007047704770470A44914200F1FF3300D185
:10212000704710B511F8014B03F8014F9142F9D1F6
:1021300010BD00001FB514461A46094B1B68054622
:10214000D86854B9074B1C46CDE9013400912B46A1
:10215000054900F07DF800F0A2F8044BF4E700BF59
:10216000C40100202E3B0008003B0008F33A0008A1
:1021700070B5A1FB02543CB92946FFF7A7FB064600
:1021800028B90026304670BD0C220260F9E72A46C5
:10219000214600F07CF8F5E738B50546002941D026
:1021A00051F8043C0C1F002BB8BFE418FFF70EFCDD
:1021B0001D4A136833B9636014602846BDE838408F
:1021C000FFF70ABCA34208D9206821188B4201BF3F
:1021D00019685B6809182160EDE71A465B680BB166
:1021E000A342FAD911685018A0420BD120680144CB
:1021F000501883421160E0D118685B68536008444E
:102200001060DAE702D90C232B60D6E7206821188A
:102210008B4204BF19685B68636004BF09182160C2
:102220005460CAE738BD00BFCC01002082B001B9BC
:1022300001A942B14BB113780B601278101E18BF80
:10224000012002B070471046FBE76FF00100F8E78D
:102250000EB403B5014603AB054853F8042B0068E0
:10226000019300F04DF802B05DF804EB03B0704745
:10227000C40100200346084641B1FF2A04D98A223E
:102280001A604FF0FF3070470A7001207047024417
:102290000346934200D1704703F8011BF9E708B5E4
:1022A000062000F047FB012001F097F99368013BFD
:1022B000002B10B4936008DA9469A34201DB0A2969
:1022C00003D15DF8044B00F0F5B91368581C106099
:1022D000197008465DF8044B7047F8B506460F467E
:1022E0001446D518AC4201D1002007E014F8011BB8
:1022F0003A463046FFF7DAFF431CF3D1F8BD000041
:102300002DE9F04F0D469DB014469846064618B18B
:10231000036A0BB900F098F96B6ED90705D4AB8945
:102320009A0502D4A86DFFF7F4FEAB891B0701D50F
:102330002B699BB92946304600F0FAF970B16B6EF3
:10234000DC0704D54FF0FF301DB0BDE8F08FAB893E
:102350009805F7D4A86DFFF7DDFEF3E70023099396
:1023600020238DF82930CDF80C803023DFF8AC81A4
:102370008DF82A304FF0010923469A4613F8012BB5
:102380000AB1252AF9D1BAEB040B0BD05B462246E1
:1023900029463046FFF7A1FF013000F0A780099AD7
:1023A0005A4409929AF80030002B00F09F800023D5
:1023B0004FF0FF32CDE905230AF1010A0493079398
:1023C0008DF853301A935446052214F8011B5348D4
:1023D000FEF746FB049AD8B9D10644BF20238DF8F6
:1023E0005330130744BF2B238DF853309AF8003035
:1023F0002A2B15D0079A544600204FF00A0C21468C
:1024000011F8013B303B092B4BD9B0B1079214E0D6
:10241000A0EB080309FA03F313430493A246D2E79F
:10242000039B191D1B680391002BBBBF5B4242F04D
:10243000020207930793B8BF049223782E2B0AD188
:1024400063782A2B32D1039B1A1D1B68039243EA3F
:10245000E37302340593DFF8D4A0217803225046B9
:10246000FEF7FEFA38B1049BA0EB0A00402282403E
:1024700013430134049314F8011B29488DF82810E4
:102480000622FEF7EDFA00283FD0264B1BBB039B2C
:10249000073323F0070308330393099B3B44099355
:1024A0006AE70CFB02320C460120A8E70023013446
:1024B000059319464FF00A0C204610F8012B303ACC
:1024C000092A03D9002BC6D00591C4E70CFB0121D2
:1024D00004460123F0E703AB00932A46124B04A9FC
:1024E0003046FDF7E9FE0746781CD6D16B6ED9075A
:1024F00005D4AB899A0502D4A86DFFF70BFEAB8912
:102500005B063FF51FAF09981EE703AB00932A4611
:10251000054B04A93046FEF76FF9E4E72F3B0008AE
:10252000393B0008B9020008DB220008353B0008EF
:10253000002310B50446C0E90033C0E904338360CA
:1025400081814366C2818361194608225C30FFF7AE
:102550009EFE0D4B63620D4BA3620D4BE3620D4B70
:1025600023630D4B24629C4206D003F1680294421F
:1025700002D0D0339C4205D104F15800BDE8104090
:10258000FFF7C6BD10BD00BFC52A0008E72A000836
:102590001F2B0008432B0008D4010020024A0349E6
:1025A000034800F069B800BF6C010020752A0008DC
:1025B0007801002041680C4B994210B5044601D0C7
:1025C00000F058FAA168094B994202D0204600F069
:1025D00051FAE168064B994204D02046BDE810400C
:1025E00000F048BA10BD00BFD40100203C0200201A
:1025F000A402002010B50B4B0B4C0C4A1A6020466D
:1026000000220421FFF794FF04F168000122092150
:10261000FFF78EFF04F1D0000222BDE81040122126
:10262000FFF786BF0C030020D40100209D25000881
:102630000148FFF76EBD00BFC90100200148FFF748
:1026400069BD00BFC901002010B50446FFF7F0FFC7
:10265000236A1BB1BDE81040FFF7F0BF044B2362B3
:10266000044B1B68002BF5D1FFF7C4FFF2E700BF56
:10267000B52500080C0300202DE9F84307468846DD
:1026800014460026D4E90195B9F1010905D524685D
:10269000002CF7D13046BDE8F883AB89012B07D970
:1026A000B5F90E30013303D029463846C0470643FA
:1026B0006835E9E7F8B50E461446054618B1036AD1
:1026C0000BB9FFF7C1FFA369A360A3891A0701D55E
:1026D000236943B92146284600F02AF818B14FF083
:1026E000FF373846F8BD23682269981A6369F6B245
:1026F0008342374605DC2146284600F0BBF9002816
:10270000EDD1A368013BA36023685A1C22601E70B0
:102710006269431C9A4204D0A389DB07E1D50A2EE3
:10272000DFD12146284600F0A5F90028D9D0D6E708
:1027300038B5294B054618680C4618B1036A0BB921
:10274000FFF782FFB4F90C30190722D4DA0607D458
:1027500009222A6043F04003A3814FF0FF3033E0A9
:10276000580712D5616B41B104F14403994202D07C
:102770002846FFF711FD00236363A38923F0240398
:10278000A3810023636023692360A38943F00803C6
:10279000A38123694BB9A38903F42073B3F5007FA8
:1027A00003D02146284600F03FF8B4F90C3013F06E
:1027B00001020AD00022A26062695242A26122692B
:1027C00042B913F08000C5D138BD990758BF62697E
:1027D000A260F4E70020F7E7C401002070B50C46C2
:1027E000B1F90E10002996B015461E460DDAA389E0
:1027F00013F0800F4FF0000114BF40234FF48063AB
:10280000002031602B6016B070BD6A4600F048F8B9
:102810000028ECDB019901F47041A1F50053594205
:1028200059414FF48063EBE78B89F7B59D07064666
:102830000C4607D504F1470323602361012363613C
:1028400003B0F0BD01AB6A46FFF7C8FF009F054625
:1028500039463046FFF73AF848B9B4F90C309A05D2
:10286000EED423F0030343F00203A381E2E7A3893C
:10287000206043F08003A381019BC4E904075BB19E
:10288000B4F90E10304600F01DF828B1A38923F0EA
:10289000030343F00103A381A3891D43A581CFE76F
:1028A00038B5074D00230446084611462B6000F05A
:1028B00071FE431C02D12B6803B1236038BD00BFF9
:1028C0001003002038B5064D0023044608462B604F
:1028D00000F07FFE431C02D12B6803B1236038BD9A
:1028E000100300201F2938B505460C4604D91623CD
:1028F00003604FF0FF3038BDC26B12B152F8213087
:102900004BB9284600F030F8224601462846BDE87B
:10291000384000F017B8012B0AD0591C03D11623F8
:1029200003600120E7E7002142F824102046984781
:102930000020E0E7024B01461868FFF7D3BF00BF55
:10294000C401002038B5074D00230446084611464F
:102950002B6000F044FE431C02D12B6803B12360BE
:1029600038BD00BF1003002000F03ABEB1F90C20C2
:102970002DE9F041170705460C4656D44B68002B4D
:1029800002DC0B6C002B3DDDE66A002E3AD0002302
:1029900012F480522F68216A2B6025D0626DA389C2
:1029A000580705D56368D21A636B0BB1236CD21A32
:1029B000216AE66A00232846B047411C24D0002340
:1029C000636023692360A389DA0400D56065616BC5
:1029D0002F60B9B104F14403994202D02846FFF7B1
:1029E000DBFB002363630DE001232846B047461C50
:1029F0000246D4D12B68002BD1D01D2B01D0162B31
:102A00002BD12F6000202FE02A68B4F90C3042B19E
:102A10001D2A01D0162A22D1002363602369236076
:102A2000D5E7626022692260CEE70F69002FE9D006
:102A300093070E6808BF4B690F6018BF0023A6EB11
:102A400007088B60B8F1000FDCDD216AA66A4346F7
:102A50003A462846B047002808DCB4F90C3043F069
:102A60004003A3814FF0FF30BDE8F0810744A8EB9D
:102A70000008E7E738B50B6905460C4613B9002591
:102A8000284638BD18B1036A0BB9FFF7DDFDB4F96C
:102A90000C30002BF3D0626ED00704D4990502D419
:102AA000A06DFFF736FB28462146FFF75FFF636EF8
:102AB000DA070546E4D4A3899B05E1D4A06DFFF7AE
:102AC00029FBDDE710B50C46B1F90E1000F060F8F7
:102AD0000028ABBF636DA3891B1823F48053ACBFE0
:102AE0006365A38110BD2DE9F0411F468B89DB058D
:102AF00005460C46164605D5B1F90E1002230022F4
:102B000000F034F8A389B4F90E1023F48053A381A4
:102B100032463B462846BDE8F04100F04BB810B5C0
:102B20000C46B1F90E1000F021F8431CA38915BF23
:102B3000606523F4805343F48053A38118BFA381BD
:102B400010BDB1F90E1000F001B8000038B5064D07
:102B50000023044608462B6000F038FD431C02D1D8
:102B60002B6803B1236038BD1003002038B5074D32
:102B700004460846114600222A601A4600F02BFD42
:102B8000431C02D12B6803B1236038BD1003002021
:102B900038B5074D04460846114600222A601A46F9
:102BA00000F024FD431C02D12B6803B1236038BD23
:102BB0001003002038B5074D044608461146002290
:102BC0002A601A4600F00FFD431C02D12B6803B1A6
:102BD000236038BD1003002081F0004102E000BFF7
:102BE00083F0004330B54FEA41044FEA430594EACD
:102BF000050F08BF90EA020F1FBF54EA000C55EA08
:102C0000020C7FEA645C7FEA655C00F0E2804FEAD8
:102C10005454D4EB5555B8BF6D420CDD2C4480EABA
:102C2000020281EA030382EA000083EA010180EAEA
:102C3000020281EA0303362D88BF30BD11F0004F38
:102C40004FEA01314FF4801C4CEA113102D040426E
:102C500061EB410113F0004F4FEA03334CEA1333A9
:102C600002D0524263EB430394EA050F00F0A780C1
:102C7000A4F10104D5F1200E0DDB02FA0EFC22FABC
:102C800005F2801841F1000103FA0EF2801843FAB0
:102C900005F359410EE0A5F120050EF1200E012AA1
:102CA00003FA0EFC28BF4CF0020C43FA05F3C018DF
:102CB00051EBE37101F0004507D54FF0000EDCF158
:102CC000000C7EEB00006EEB0101B1F5801F1BD301
:102CD000B1F5001F0CD349085FEA30004FEA3C0C05
:102CE00004F101044FEA445212F5800F80F09A80FB
:102CF000BCF1004F08BF5FEA500C50F1000041EBFF
:102D0000045141EA050130BD5FEA4C0C404141EB02
:102D10000101013C28BFB1F5801FE9D291F0000FFD
:102D200004BF01460020B1FA81F308BF2033A3F1AC
:102D30000B03B3F120020CDA0C3208DD02F1140CA3
:102D4000C2F10C0201FA0CF021FA02F10CE002F1DE
:102D50001402D8BFC2F1200C01FA02F120FA0CFCD7
:102D6000DCBF41EA0C019040E41AA2BF01EB045120
:102D7000294330BD6FEA04041F3C1CDA0C340EDC1E
:102D800004F11404C4F1200220FA04F001FA02F361
:102D900040EA030021FA04F345EA030130BDC4F11F
:102DA0000C04C4F1200220FA02F001FA04F340EA14
:102DB0000300294630BD21FA04F0294630BD94F0C5
:102DC000000F83F4801306BF81F480110134013DAC
:102DD0004EE77FEA645C18BF7FEA655C29D094EA1D
:102DE000050F08BF90EA020F05D054EA000C04BF9B
:102DF0001946104630BD91EA030F1EBF0021002086
:102E000030BD5FEA545C05D14000494128BF41F024
:102E1000004130BD14F580043CBF01F5801130BD88
:102E200001F0004545F0FE4141F470014FF0000013
:102E300030BD7FEA645C1ABF194610467FEA655CC4
:102E40001CBF0B46024650EA013406BF52EA033566
:102E500091EA030F41F4002130BD00BF90F0000F54
:102E600004BF0021704730B54FF4806404F1320490
:102E70004FF000054FF0000150E700BF90F0000F49
:102E800004BF0021704730B54FF4806404F1320470
:102E900010F0004548BF40424FF000013EE700BF40
:102EA00042004FEAE2014FEA31014FEA02701FBFD0
:102EB00012F07F4393F07F4F81F06051704732F002
:102EC0007F4208BF704793F07F4F04BF41F4002159
:102ED000704730B54FF4607401F0004521F00041B7
:102EE0001CE700BF50EA010208BF704730B54FF041
:102EF00000050AE050EA010208BF704730B511F042
:102F0000004502D5404261EB41014FF4806404F179
:102F100032045FEA915C3FF4D8AE4FF003025FEAFF
:102F2000DC0C18BF03325FEADC0C18BF033202EB83
:102F3000DC02C2F1200300FA03FC20FA02F001FADD
:102F400003FE40EA0E0021FA02F11444BDE600BF80
:102F500070B54FF0FF0C4CF4E06C1CEA11541DBF2F
:102F60001CEA135594EA0C0F95EA0C0F00F0DEF8FA
:102F70002C4481EA030621EA4C5123EA4C5350EADF
:102F8000013518BF52EA033541F4801143F4801330
:102F900038D0A0FB02CE4FF00005E1FB02E506F0C1
:102FA0000042E0FB03E54FF00006E1FB03569CF016
:102FB000000F18BF4EF0010EA4F1FF04B6F5007F1C
:102FC00064F5407404D25FEA4E0E6D4146EB06068E
:102FD00042EAC62141EA55514FEAC52040EA5E5017
:102FE0004FEACE2EB4F1FD0C88BFBCF5E06F1ED8C1
:102FF000BEF1004F08BF5FEA500E50F1000041EBF8
:10300000045170BD06F0004646EA010140EA0200A4
:1030100081EA0301B4EB5C04C2BFD4EB0C0541EAC6
:10302000045170BD41F480114FF0000E013C00F3DB
:10303000AB8014F1360FDEBF002001F0004170BDFF
:10304000C4F10004203C35DA0C341BDC04F1140418
:10305000C4F1200500FA05F320FA04F001FA05F2A4
:1030600040EA020001F0004221F0004110EBD37071
:1030700021FA04F642EB06015EEA430E08BF20EA9D
:10308000D37070BDC4F10C04C4F1200500FA04F340
:1030900020FA05F001FA04F240EA020001F00041D2
:1030A00010EBD37041F100015EEA430E08BF20EA45
:1030B000D37070BDC4F1200500FA05F24EEA020E8D
:1030C00020FA04F301FA05F243EA020321FA04F0BC
:1030D00001F0004121FA04F220EA020000EBD37073
:1030E0005EEA430E08BF20EAD37070BD94F0000F73
:1030F0000FD101F00046400041EB010111F4801FA7
:1031000008BF013CF7D041EA060195F0000F18BF57
:10311000704703F00046520043EB030313F4801F93
:1031200008BF013DF7D043EA0603704794EA0C0F4D
:103130000CEA135518BF95EA0C0F0CD050EA410663
:1031400018BF52EA4306D1D181EA030101F00041E0
:103150004FF0000070BD50EA410606BF1046194608
:1031600052EA430619D094EA0C0F02D150EA013614
:1031700013D195EA0C0F05D152EA03361CBF104655
:1031800019460AD181EA030101F0004141F0FE41F4
:1031900041F470014FF0000070BD41F0FE4141F478
:1031A000780170BD70B54FF0FF0C4CF4E06C1CEA78
:1031B00011541DBF1CEA135594EA0C0F95EA0C0F2D
:1031C00000F0A7F8A4EB050481EA030E52EA0335E8
:1031D0004FEA013100F088804FEA03334FF0805509
:1031E00045EA131343EA12634FEA022245EA111536
:1031F00045EA10654FEA00260EF000419D4208BFE7
:10320000964244F1FD0404F5407402D25B084FEA93
:103210003202B61A65EB03055B084FEA32024FF43F
:1032200080104FF4002CB6EB020E75EB030E22BF9C
:10323000B61A754640EA0C005B084FEA3202B6EB5C
:10324000020E75EB030E22BFB61A754640EA5C000B
:103250005B084FEA3202B6EB020E75EB030E22BF9B
:10326000B61A754640EA9C005B084FEA3202B6EB9C
:10327000020E75EB030E22BFB61A754640EADC005B
:1032800055EA060E18D04FEA051545EA16754FEABD
:1032900006164FEAC30343EA52734FEAC2025FEADB
:1032A0001C1CC0D111F4801F0BD141EA00014FF06A
:1032B00000004FF0004CB6E711F4801F04BF01433B
:1032C0000020B4F1FD0C88BFBCF5E06F3FF6AFAE57
:1032D000B5EB030C04BFB6EB020C5FEA500C50F1E7
:1032E000000041EB045170BD0EF0004E4EEA11316A
:1032F00014EB5C04C2BFD4EB0C0541EA045170BD71
:1033000041F480114FF0000E013C90E645EA060EB4
:103310008DE60CEA135594EA0C0F08BF95EA0C0FE2
:103320003FF43BAF94EA0C0F0AD150EA01347FF42A
:1033300034AF95EA0C0F7FF425AF104619462CE701
:1033400095EA0C0F06D152EA03353FF4FDAE104664
:10335000194622E750EA410618BF52EA43067FF4B5
:10336000C5AE50EA41047FF40DAF52EA43057FF445
:10337000EBAE12E74FF0FF3C06E000BF4FF0010C50
:1033800002E000BF4FF0010C4DF804CD4FEA410CB4
:103390007FEA6C5C4FEA430C18BF7FEA6C5C1BD081
:1033A00001B050EA410C0CBF52EA430C91EA030F02
:1033B00002BF90EA020F0020704710F1000F91EA5F
:1033C000030F58BF994208BF90422CBFD8176FEA2D
:1033D000E37040F0010070474FEA410C7FEA6C5CFB
:1033E00002D150EA013C07D14FEA430C7FEA6C5C02
:1033F000D6D152EA033CD3D05DF8040B704700BF2E
:103400008446104662468C461946634600E000BF7B
:1034100001B5FFF7B7FF002848BF10F1000F01BD4D
:103420004DF808EDFFF7F4FF0CBF012000205DF818
:1034300008FB00BF4DF808EDFFF7EAFF34BF01209D
:1034400000205DF808FB00BF4DF808EDFFF7E0FF36
:1034500094BF012000205DF808FB00BF4DF808ED87
:10346000FFF7CEFF94BF012000205DF808FB00BFEE
:103470004DF808EDFFF7C4FF34BF012000205DF8D0
:1034800008FB00BF4FEA410C7FEA6C5C02D150EAB6
:10349000013C0AD14FEA430C7FEA6C5C02D152EA4C
:1034A000033C02D14FF0000070474FF0010070471D
:1034B0004FEA410212F5001215D211D56FF478735C
:1034C000B3EB625212D94FEAC12343F0004343EAFF
:1034D000505311F0004F23FA02F018BF40427047DA
:1034E0004FF00000704750EA013005D111F0004064
:1034F00008BF6FF0004070474FF00000704700BFFA
:1035000008B500F009F9104800F0DAF80F4A5369DD
:1035100043F4001353610E4B1A6822F440221A60E0
:103520001A6842F480221A60094C4FF40073A361B8
:103530004FF47A7000F0E6F84FF00073A3614FF497
:103540007A7000F0DFF8EFE700A24A0400100240B2
:10355000001000480A4B02E0002243F8042B094AFD
:103560009342F9D3084A094B03E052F8041B43F88D
:10357000041B07498B42F8D3FFF7C2FFFEE700BFE9
:10358000C80100201C030020483B00080000002068
:10359000C8010020002804DB4FF400534B600020DA
:1035A00070474FF0FF3070470346064A126822B159
:1035B000044A1068034413607047024A02491160CC
:1035C000F6E700BF14030020200300204FF0FF3077
:1035D0007047012070470020704700BEFDE770472C
:1035E0004FF0FF3070474FF0FF3070474FF0FF3023
:1035F0007047000082B000230193009303F18043E1
:1036000003F504331A6842F480321A601A6842F4EF
:1036100080221A60019B01330193234B1B6813F432
:10362000003F03D1019BB3F5A06FF3D11E4B1B6884
:1036300013F4003F06D001230093009B012B04D01C
:1036400002B0704700230093F7E7184B12221A606C
:10365000A3F580535A685A605A685A605A6842F40F
:1036600080625A605A6822F47C125A605A6842F4A6
:10367000E8125A601A6842F080721A600A4B1B689E
:1036800013F0007FFAD0084B5A6822F003025A6008
:103690005A6842F002025A60034B5B6803F00C0365
:1036A000082BF9D1CCE700BF0010024000200240F7
:1036B000024A136801331360704700BF18030020EB
:1036C0000E4BA3FB00239B09013B4FF0E02253610B
:1036D00000219161136943F006031361084B83F8DD
:1036E0002010136943F00103136102F1C04202F597
:1036F0009832936943F0010393617047D34D621090
:1037000000ED00E0034B1B681844024B1B6883422A
:10371000FBD370471803002008B5224AD2F888303E
:1037200043F47003C2F888301F4B1A6842F001025C
:103730001A605A6822F003025A605A6822F0F002B6
:103740005A605A6822F4E0625A605A6822F4605261
:103750005A605A6822F400025A605A6822F0E06205
:103760005A601A6822F480321A601A6822F4002221
:103770001A601A6822F080721A601A6822F4802295
:103780001A605A6822F4FE025A60DA6A22F00F02C6
:10379000DA62196B054A0A401A6300229A60FFF741
:1037A00029FF08BD00ED00E000100240CCFC00FF46
:1037B000494E4600696E66004E414E006E616E00D5
:1037C00030003031323334353637383941424344B2
:1037D000454600303132333435363738396162632B
:1037E00064656600496E66696E697479004E614E63
:1037F000005245454E54206D616C6C6F63207375AB
:1038000063636565646564002F566F6C756D6573E1
:103810002F646174612F6A656E6B696E732F776FA9
:10382000726B73706163652F474E552D746F6F6CAB
:10383000636861696E2F61726D2D31322D6D70611B
:10384000636274692F7372632F6E65776C69622D82
:1038500063796777696E2F6E65776C69622F6C6923
:1038600062632F7374646C69622F64746F612E637A
:103870000042616C6C6F632073756363656564659A
:1038800064002F566F6C756D65732F646174612FC2
:103890006A656E6B696E732F776F726B737061639D
:1038A000652F474E552D746F6F6C636861696E2F7D
:1038B00061726D2D31322D6D7061636274692F7389
:1038C00072632F6E65776C69622D63796777696EB5
:1038D0002F6E65776C69622F6C6962632F737464F5
:1038E0006C69622F6D707265632E630005000000C5
:1038F000190000007D0000000080E03779C34143DB
:10390000176E05B5B5B89346F5F93FE9034F384D45
:10391000321D30F94877825A3CBF737FDD4F1575F1
:10392000000000000000F03F000000000000244004
:1039300000000000000059400000000000408F40DF
:10394000000000000088C34000000000006AF8404A
:103950000000000080842E4100000000D01263416E
:103960000000000084D797410000000065CDCD41E4
:10397000000000205FA00242000000E876483742C5
:10398000000000A2941A6D42000040E59C30A24263
:103990000000901EC4BCD64200003426F56B0C43D8
:1039A0000080E03779C3414300A0D885573476437F
:1039B00000C84E676DC1AB43003D9160E458E143E0
:1039C000408CB5781DAF154450EFE2D6E41A4B4455
:1039D00092D54D06CFF08044F64AE1C7022DB5449A
:1039E000B49DD9794378EA444300504F5349580075
:1039F0002E000020202020202020202028282828D9
:103A000028202020202020202020202020202020AE
:103A100020202088101010101010101010101010FE
:103A2000101010040404040404040404041010100E
:103A300010101010414141414141010101010101BA
:103A40000101010101010101010101010101101048
:103A5000101010104242424242420202020202028E
:103A6000020202020202020202020202020210101A
:103A70001010200000000000000000000000000006
:103A80000000000000000000000000000000000036
:103A90000000000000000000000000000000000026
:103AA0000000000000000000000000000000000016
:103AB0000000000000000000000000000000000006
:103AC00000000000000000000000000000000000F6
:103AD00000000000000000000000000000000000E6
:103AE00000000000000000000000000000000000D6
:103AF0000000002C2066756E6374696F6E3A2000BA
:103B0000617373657274696F6E202225732220665B
:103B100061696C65643A2066696C652022257322B0
:103B20002C206C696E65202564257325730A00239B
:103B30002D302B2000686C4C0065666745464700B9
:083B400020CFFF7F010000000F
:103B4800430000000000000000000000000000002A
:103B5800000000000000000000000000000000005D
:103B6800430000000000000000000000000000000A
:103B7800000000000000000000000000000000003D
:103B880043000000000000000000000000000000EA
:103B9800000000000000000000000000000000001D
:103BA80043000000000000000000000000000000CA
:103BB80000000000000000000000000000000000FD
:103BC80043000000000000000000000000000000AA
:103BD80000000000000000000000000000000000DD
:103BE800430000000000000000000000000000008A
:103BF80000000000000000000000000000000000BD
:103C08004300000000000000000000000000000069
:103C1800000000000000000000000000000000009C
:103C2800752200082D22000800000000F239000863
:103C3800F03900082E3B00082E3B00082E3B0008F8
:103C48002E3B00082E3B00082E3B00082E3B0008A8
:103C58002E3B00082E3B0008FFFFFFFFFFFFFFFF82
:103C6800FFFFFFFFFFFF00000100415343494900E8
:103C7800000000000000000000000000000000003C
:103C880000000000000000000000415343494900C3
:103C9800000000000000000000000000000000001C
:103CA800000000000000000000000000000000000C
:103CB80003000000D401002000000000D40100200F
:103CC8003C020020A40200200000000000000000C8
:103CD80000000000000000000000000000000000DC
:103CE80000000000000000000000000000000000CC
:103CF80000000000000000000000000000000000BC
:083D080000000000780100201A
:040000050800355565
:00000001FF
